:020000040800F2
:1000000000000620812B0008F50500080306000803
:10001000090600080F060008150600080000000089
:100020000000000000000000000000001B060008A7
:1000300029060008000000003706000845060008F1
:10004000C92B0008C92B0008C92B0008C92B0008C0
:10005000C92B0008C92B0008C92B0008C92B0008B0
:10006000C92B0008C92B0008C92B0008C92B0008A0
:10007000C92B0008C92B00085F060008C92B00081F
:10008000C92B0008C92B0008C92B0008C92B000880
:10009000C92B0008C92B0008C92B0008C92B000870
:1000A000C92B0008C92B0008C92B0008C92B000860
:1000B000C92B0008C92B0008C92B0008C92B000850
:1000C000C92B0008C92B0008C92B0008C92B000840
:1000D000C92B0008C92B0008C92B0008C92B000830
:1000E000C92B0008C92B0008C92B0008C92B000820
:1000F000C92B0008C92B0008C92B0008C92B000810
:10010000C92B0008C92B0008C92B0008C92B0008FF
:10011000C92B0008C92B0008C92B0008C92B0008EF
:10012000C92B0008C92B0008C92B0008C92B0008DF
:10013000C92B0008C92B0008C92B0008C92B0008CF
:10014000C92B0008C92B0008C92B0008C92B0008BF
:10015000C92B0008C92B000800000000C92B0008AB
:10016000C92B0008C92B0008000000000000000097
:10017000C92B0008C92B0008530600080000000026
:1001800000000000C92B0008C92B0008C92B00087B
:10019000C92B000800000000000000000000000063
:1001A000000000000000000000000000C92B000853
:1001B000C92B000800000000C92B00080000000047
:1001C000000000000000000000000000000000002F
:1001D0000000000000000000C92B0008C92B000827
:1001E000C92B0008C92B0008C92B0008C92B00081F
:1001F000C92B0008C92B0008C92B0008C92B00080F
:0C020000C92B0008C92B0008C92B0008FE
:10020C0010B5054C237833B9044B13B10448AFF344
:10021C0000800123237010BD0400002000000000AA
:10022C00142C000808B5034B1BB103490348AFF36A
:10023C00008008BD0000000008000020142C0008FD
:10024C0053B94AB9002908BF00281CBF4FF0FF3131
:10025C004FF0FF3000F074B9ADF1080C6DE904CE2D
:10026C0000F006F8DDF804E0DDE9022304B0704785
:10027C002DE9F047089D04468E46002B4DD18A424D
:10028C00944669D9B2FA82F252B101FA02F3C2F180
:10029C00200120FA01F10CFA02FC41EA030E944011
:1002AC004FEA1C48210CBEFBF8F61FFA8CF708FB32
:1002BC0016E341EA034306FB07F199420AD91CEB0A
:1002CC00030306F1FF3080F01F81994240F21C813C
:1002DC00023E63445B1AA4B2B3FBF8F008FB103384
:1002EC0044EA034400FB07F7A7420AD91CEB0404B9
:1002FC0000F1FF3380F00A81A74240F20781644489
:10030C00023840EA0640E41B00261DB1D44000230D
:10031C00C5E900433146BDE8F0878B4209D9002D71
:10032C0000F0EF800026C5E9000130463146BDE8FB
:10033C00F087B3FA83F6002E4AD18B4202D3824265
:10034C0000F2F980841A61EB030301209E46002D14
:10035C00E0D0C5E9004EDDE702B9FFDEB2FA82F269
:10036C00002A40F09280A1EB0C014FEA1C471FFAC7
:10037C008CFE0126200CB1FBF7F307FB131140EAAE
:10038C0001410EFB03F0884208D91CEB010103F17B
:10039C00FF3802D2884200F2CB804346091AA4B23D
:1003AC00B1FBF7F007FB101144EA01440EFB00FE11
:1003BC00A64508D91CEB040400F1FF3102D2A64576
:1003CC0000F2BB800846A4EB0E0440EA03409CE715
:1003DC00C6F12007B34022FA07FC4CEA030C20FAC2
:1003EC0007F401FA06F31C43F9404FEA1C4900FAE2
:1003FC0006F3B1FBF9F8200C1FFA8CFE09FB18115F
:10040C0040EA014108FB0EF0884202FA06F20BD9D1
:10041C001CEB010108F1FF3A80F08880884240F221
:10042C008580A8F102086144091AA4B2B1FBF9F065
:10043C0009FB101144EA014100FB0EFE8E4508D960
:10044C001CEB010100F1FF346CD28E456AD90238E5
:10045C00614440EA0840A0FB0294A1EB0E01A142CA
:10046C00C846A64656D353D05DB1B3EB080261EB38
:10047C000E0101FA07F722FA06F3F1401F43C5E912
:10048C00007100263146BDE8F087C2F12003D84048
:10049C000CFA02FC21FA03F3914001434FEA1C478A
:1004AC001FFA8CFEB3FBF7F007FB10360B0C43EA7C
:1004BC00064300FB0EF69E4204FA02F408D91CEB2C
:1004CC00030300F1FF382FD29E422DD9023863442A
:1004DC009B1B89B2B3FBF7F607FB163341EA0341CA
:1004EC0006FB0EF38B4208D91CEB010106F1FF3819
:1004FC0016D28B4214D9023E6144C91A46EA004610
:10050C0038E72E46284605E70646E3E61846F8E6A1
:10051C004B45A9D2B9EB020864EB0C0E0138A3E7EA
:10052C004646EAE7204694E74046D1E7D0467BE7CB
:10053C00023B614432E7304609E76444023842E743
:10054C00704700BF80B500AF00F060FA012123486E
:10055C0000F0E5FA224A1369012161F302031361E9
:10056C00204A136E012161F301031366012101205E
:10057C0000F052FB00BF00F0ADFA0346002BFAD09E
:10058C00022301229021012000F0FCFB012102201A
:10059C0000F042FB00BF192000F074FA0346012B57
:1005AC00F9D1002000F08CFB042000F0B5FB0420F6
:1005BC0000F09CFB012000F0C5FB022000F026FCA3
:1005CC0000BF00F04DFC0346022BFAD1002000F0D6
:1005DC00B9FB01F0D1FA00BF80BD00BF1C00400088
:1005EC0000700040003C024080B400AF00BFBD462C
:1005FC005DF8047B704780B400AFFEE780B400AFB9
:10060C00FEE780B400AFFEE780B400AFFEE780B435
:10061C0000AF00BFBD465DF8047B704780B400AFEF
:10062C0000BFBD465DF8047B704780B400AF00BFCF
:10063C00BD465DF8047B704780B400AF00BFBD467B
:10064C005DF8047B704780B500AF01F077FD00BF0B
:10065C0080BD80B500AF4FF0C05000F0EDFE0346FA
:10066C00002B03D04FF0C05000F006FF00BF80BD40
:10067C0080B584B000AF00237B730121504800F09B
:10068C004EFA3B1D184600F0B8FF0123BB72002345
:10069C003B7201237B720123FB7240237B603B1D69
:1006AC001946484800F02FFF4021464800F0CEFF85
:1006BC00642001F02BFB4021424800F0B8FF1420CD
:1006CC0001F024FB02F060F8052001F01FFB07F19C
:1006DC000D03194643F20A0002F002F87B7B9BB231
:1006EC001B02FB8107F10D03194643F20B0001F0CD
:1006FC00F7FF7B7B9AB2FB891343FB81FB8945F2A5
:10070C004062934201D1FB8956E040212D4800F014
:10071C009DFF0A2001F0FAFA0A2001F0F7FA4021B5
:10072C00284800F084FF0A2001F0F0FA01F046FF9F
:10073C000121FF2001F040FD8021122001F03CFD41
:10074C00322001F0E3FA07F10D0319461C2001F0E9
:10075C0057FD7B7B9BB21B02FB8107F10D031946F6
:10076C001D2001F04DFD7B7B9AB2FB891343FB816D
:10077C00FB8947F6A272934201D000231CE007F1DB
:10078C000D0319460A2001F03BFD7B7B9BB21B023B
:10079C00FB8107F10D0319460B2001F031FD7B7B2A
:1007AC009AB2FB891343FB81FB8942F2426293426A
:1007BC0001D1FB8900E0002318461037BD4680BDEF
:1007CC0003003000000C024080B584B002AFFFF78C
:1007DC00B9FE032001F05AF901F078FAFFF748FF4F
:1007EC0003461A463E4B1A803D4B1B8842F242622E
:1007FC00934209D03A4B1B8845F24062934203D096
:10080C00C82001F083FAFBE701F0F4FE0346012B4C
:10081C0003D0C82001F07AFAFBE7324B00221A70A1
:10082C0000F0BEF802E0052001F070FA2D4B1B78A9
:10083C00DBB2002BF7D001F05BFC2A4B00221A70C4
:10084C00294B2A4A1A60284801F0ACFF00237B6030
:10085C001FE07B68C3F51643B3F5007F05D87B68B2
:10086C009AB2234B9B1A9BB201E04FF400733B806E
:10087C007B68204A1A443B886FF070410091352107
:10088C00194802F06EF80346FB707B6803F50073A1
:10089C007B607B68B3F5164FDBD3012001F082FA45
:1008AC0001F018FC02E0052001F030FA0D4B1B782A
:1008BC00DBB2002BF7D001F01BFC0A4B00221A70A4
:1008CC006FF0704300934FF416430A4A35210648E3
:1008DC0002F047F80346FB70962001F017FADFE7A9
:1008EC00209600202C960020989600200054004062
:1008FC000096FFFF2000002080B584B000AF786028
:10090C007B681B68214A93423BD10121204800F0AF
:10091C0006F901211F4800F002F901211D4800F0E1
:10092C00FEF8042206211C4800F09FFE0422072139
:10093C00194800F09AFE0123FB730223BB730123B9
:10094C003B7300237B734023BB6007F108031946FC
:10095C00114800F0D8FD8023BB6007F1080319464D
:10096C000D4800F0D0FD7B681B680C4A0F2118461F
:10097C0000F000FF7B681B6835220021184600F050
:10098C0017FF00BF1037BD4680BD00BF00540040AC
:10099C001500400001003000000402402B18F0301C
:1009AC0080B500AF642001F0B1F901F055FC0320D3
:1009BC0001F074FC022001F0C5FC042001F0EDFCF8
:1009CC00022001F00FFD0E4B1B88184601F006FAB1
:1009DC000C4B1B680B4A43F0200313600A4B4FF47B
:1009EC0096420021184601F015FB642001F08EF9A7
:1009FC007821A02001F04AFD01F06CFB00BF80BD06
:100A0C0020960020000005502000002080B400AF8C
:100A1C001A4A136843F00103136000BF174B1B689D
:100A2C00C3F34003DBB2012BF8D1144A93686FF384
:100A3C000103936000BF114B9B68C3F38103DBB2CE
:100A4C00002BF8D10D4B1B680C4A23F0867323F452
:100A5C0080331360094B00229A60084B084A5A6095
:100A6C00064B0022C3F8A020044B4FF41F02DA609F
:100A7C0000BFBD465DF8047B704700BF00380240E4
:100A8C000230030080B485B000AF78600023FB73A4
:100A9C007B681B0C03F1804303F50E331A687B68EB
:100AAC0003F01F03012101FA03F31A407B6803F0E2
:100ABC001F03012101FA03F39A4202D00023FB73B6
:100ACC0001E00123FB73FB7B18461437BD465DF830
:100ADC00047B704780B582B000AF00237B6000239D
:100AEC00FB7002E07B6801337B601120FFF7CAFFCB
:100AFC000346012B03D07B68B3F5405FF2D3112082
:100B0C00FFF7C0FF0346012B02D00023FB7001E06E
:100B1C000123FB70FB7818460837BD4680BD80B4B6
:100B2C0083B000AF78600B46FB70FB78012B16D1BD
:100B3C007B681B0C03F1804303F50E3319687B684B
:100B4C0003F01F0301229A407B681B0C03F18043C6
:100B5C0003F50E33184641EA0203036017E07B6885
:100B6C001B0C03F1804303F50E3319687B6803F00B
:100B7C001F03012202FA03F3DA437B681B0C03F117
:100B8C00804303F50E33184601EA0203036000BFED
:100B9C000C37BD465DF8047B704780B483B000AF62
:100BAC0078600B46FB70FB78012B16D17B681B0C15
:100BBC0003F1804303F50E3319687B6803F01F03C0
:100BCC0001229A407B681B0C03F1804303F50E3322
:100BDC00184641EA0203036017E07B681B0C03F123
:100BEC00804303F50E3319687B6803F01F03012261
:100BFC0002FA03F3DA437B681B0C03F1804303F521
:100C0C000E33184601EA0203036000BF0C37BD46E1
:100C1C005DF8047B7047000080B483B000AF0346DE
:100C2C000A46FB711346BB71FB79042B3ED801A21B
:100C3C0052F823F0550C0008690C00087D0C0008D4
:100C4C00910C0008A50C00081C4ABB7903F00103A9
:100C5C00D9B2136861F30003136028E0174ABB791B
:100C6C0003F00103D9B2136861F3104313601EE063
:100C7C00124ABB7903F00103D9B2136861F318630C
:100C8C00136014E00D4ABB7903F00103D9B2136F62
:100C9C0061F3000313670AE0084ABB7903F0010310
:100CAC00D9B2536F61F30003536700E000BF00BF7C
:100CBC000C37BD465DF8047B704700BF003802401E
:100CCC0080B483B000AF0346FB71074AFB7903F095
:100CDC000F03D9B2936861F30713936000BF0C370D
:100CEC00BD465DF8047B70470038024080B483B089
:100CFC0000AF0346FB71074AFB7903F00703D9B237
:100D0C00936861F38C23936000BF0C37BD465DF88C
:100D1C00047B70470038024080B483B000AF0346B8
:100D2C00FB71074AFB7903F00703D9B2936861F3AF
:100D3C004F33936000BF0C37BD465DF8047B7047A2
:100D4C000038024080B483B000AF0346FB71FB79DE
:100D5C00012B07D10A4AD2F8A43043F03003C2F871
:100D6C00A43006E0064AD2F8A4306FF30513C2F89B
:100D7C00A43000BF0C37BD465DF8047B704700BF44
:100D8C000038024090B482B000AF044608461146C9
:100D9C001A462346FB710346BB800B467B801346E9
:100DAC00BB71FB79002B06D1174AD2F8A03043F463
:100DBC008053C2F8A030144AFB7903F00103D9B276
:100DCC00536861F3965353600F4ABB88C3F308030F
:100DDC0099B2536861F38E1353600B4A7B8803F00E
:100DEC000F03D9B2536861F303035360064ABB790E
:100DFC0003F00703D9B2536861F31243536000BF89
:100E0C000837BD4690BC70470038024080B483B0B0
:100E1C0000AF0346FB71114AFB7903F00303D9B20F
:100E2C00936861F30103936000BF00BF00BF00BF74
:100E3C0000BF00BF00BF00BF00BF00BF00BF00BFAE
:100E4C0000BF00BF00BF00BF00BF00BF00BF00BF9E
:100E5C0000BF0C37BD465DF8047B7047003802407C
:100E6C0080B400AF044B9B68C3F38103DBB218461C
:100E7C00BD465DF8047B70470038024080B483B0F7
:100E8C0000AF0346FB71074AFB7903F00103D9B2AB
:100E9C00136861F30003136000BF0C37BD465DF8A7
:100EAC00047B70470000055080B483B000AF03464C
:100EBC00FB71074AFB7903F00103D9B2136861F3A4
:100ECC004103136000BF0C37BD465DF8047B7047CF
:100EDC000000055080B483B000AF0346FB71074A95
:100EEC00FB7903F00103D9B2136861F304131360A7
:100EFC0000BF0C37BD465DF8047B70470000055001
:100F0C0080B483B000AF0346FB71074AFB7903F052
:100F1C000103D9B2136861F34513136000BF0C379A
:100F2C00BD465DF8047B70470000055080B483B06B
:100F3C0000AF0346FB71074AFB7903F00103D9B2FA
:100F4C00136861F38613136000BF0C37BD465DF860
:100F5C00047B70470000055080B483B000AF03469B
:100F6C00FB71074AFB7903F00103D9B2136861F3F3
:100F7C00C713136000BF0C37BD465DF8047B704788
:100F8C000000055080B483B000AF0346FB71074AE4
:100F9C00FB7903F00303D9B2136861F38B2313605D
:100FAC0000BF0C37BD465DF8047B70470000055050
:100FBC0080B483B000AF0346FB71074AFB7903F0A2
:100FCC000103D9B2136861F38E33136000BF0C3781
:100FDC00BD465DF8047B70470000055080B483B0BB
:100FEC0000AF0346FB71074AFB7903F00103D9B24A
:100FFC00136C61F3C303136400BF0C37BD465DF87B
:10100C00047B70470000055090B482B000AF0446DA
:10101C00084611461A462346FB710346BB710B4624
:10102C007B7113463B71144AFB7903F00303D9B26D
:10103C00136861F3114313600F4ABB7903F001038A
:10104C00D9B2136861F3924313600B4A7B7903F0B6
:10105C000103D9B2136861F3D3431360064A3B7999
:10106C0003F00103D9B2136861F31453136000BF8A
:10107C000837BD4690BC70470000055080B483B063
:10108C0000AF78600B46FB70FB78012B06D10A4B46
:10109C00DA6809497B681343CB6006E0064BDA68D3
:1010AC007B68DB4304491340CB6000BF0C37BD4663
:1010BC005DF8047B704700BF0000055080B485B01C
:1010CC0000AF78600023FB73084B1A697B681340F0
:1010DC00002B02D00123FB7301E00023FB73FB7B8D
:1010EC0018461437BD465DF8047B70470000055068
:1010FC0080B483B000AF78607B6823F000437B60E2
:10110C00044A7B68536100BF0C37BD465DF8047B15
:10111C00704700BF0000055080B483B000AF78600A
:10112C007A6813686FF3000313607B6800221A60FF
:10113C007B6800225A607B6800229A607B680022E0
:10114C00DA607B6800221A617B6821225A617B6815
:10115C002B4A934248D02A4A93424AD8294A93426E
:10116C003DD0284A934244D8274A934232D0264A4B
:10117C0093423ED8254A934228D0244A934238D8E9
:10118C00234A93421DD0224A934232D8214A934299
:10119C0012D0204A93422CD81F4A934203D01F4AA4
:1011AC00934204D025E01E4B3D229A6022E01C4B5A
:1011BC004FF474629A601DE0194B4FF474129A60EC
:1011CC0018E0174B4FF074629A6013E0144B3D22F9
:1011DC00DA600FE0124B4FF47462DA600AE0104BE5
:1011EC004FF47412DA6005E00D4B4FF07462DA6064
:1011FC0000E000BF00BF0C37BD465DF8047B7047B4
:10120C00B8600240A06002408860024070600240FA
:10121C00586002404060024010600240286002406A
:10122C000060024080B483B000AF786039603B68E6
:10123C001B7A03F00303D9B27A68136861F387133E
:10124C0013603B681B7B03F00103D9B27A68136807
:10125C0061F3492313603B685B7B03F00103D9B254
:10126C007A68136861F38A2313603B689B7B03F0F5
:10127C000303D9B27A68136861F3CC2313603B681B
:10128C00DB7B03F00303D9B27A68136861F34E3346
:10129C0013603B681B7C03F00103D9B27A681368B6
:1012AC0061F3082313603B685B7C03F00303D9B242
:1012BC007A68136861F3114313603B681B7D03F07C
:1012CC000303D9B27A68136861F3D85313603B688F
:1012DC005B7D03F00303D9B27A68136861F356534C
:1012EC0013603B689B7C03F00103D9B27A685369A5
:1012FC0061F3820353613B68DB7C03F00303D9B2D7
:10130C007A68536961F3010353613B685B891A4640
:10131C007B685A603B681A687B689A603B685A68BD
:10132C007B68DA6000BF0C37BD465DF8047B704704
:10133C0080B483B000AF78600B46FB70FB7803F091
:10134C000103D9B27A68136861F30003136000BF1C
:10135C000C37BD465DF8047B704780B485B000AF98
:10136C00F860B9601346FB71BB6803F08003002B77
:10137C000FD0FB79002B06D0FB685B6943F0800231
:10138C00FB685A6105E0FB685B6923F08002FB682F
:10139C005A61BB68802B10D0FB79002B06D0FB6800
:1013AC001A68BB681A43FB681A6006E0FB681A6887
:1013BC00BB68DB431A40FB681A6000BF1437BD469C
:1013CC005DF8047B704780B485B000AFF860B960FD
:1013DC001346FB71FB79002B05D0FA68136843F4B4
:1013EC000023136004E0FA6813686FF3D3431360AF
:1013FC00FB68BA681A6100BF1437BD465DF8047B00
:10140C00704780B483B000AF78600B46FB70FB78FC
:10141C00002B05D07A68136843F48023136004E032
:10142C007A6813686FF39243136000BF0C37BD46A4
:10143C005DF8047B7047000080B485B000AF786025
:10144C007B68B3F1005F03D90A4B5B68FB6002E079
:10145C00084B1B68FB60FA687B681340002B01D0BB
:10146C00012300E0002318461437BD465DF8047BC9
:10147C00704700BF0060024080B483B000AF78605A
:10148C007B68B3F1005F05D9074A7B6823F0704392
:10149C00D36002E0044A7B68936000BF0C37BD4602
:1014AC005DF8047B704700BF0060024080B483B0DD
:1014BC0000AF0346FB71084AFB7903F00103D9B274
:1014CC00D2F83C3161F30003C2F83C3100BF0C3759
:1014DC00BD465DF8047B70470060024080B483B069
:1014EC0000AF78600B46FB70FB7803F07F03D9B23A
:1014FC007A68136861F30603136000BF0C37BD46AE
:10150C005DF8047B704780B485B000AF78603960BB
:10151C000023BB813B681B68FB8164E0FB8903F003
:10152C000103002B59D07B681B68BA895200032138
:10153C0001FA02F2D2431A407B681A607B681B687E
:10154C003A6892791146BA89520001FA02F21A43AA
:10155C007B681A607B685B68BA89012101FA02F228
:10156C00D2431A407B685A607B685B683A68127990
:10157C001146BA8901FA02F21A437B685A607B68F9
:10158C009B68BA895200032101FA02F2D2431A4035
:10159C007B689A607B689B683A68D2791146BA89F5
:1015AC00520001FA02F21A437B689A607B68DB688E
:1015BC00BA895200032101FA02F2D2431A407B6825
:1015CC00DA607B68DB683A6852791146BA89520056
:1015DC0001FA02F21A437B68DA60FB895B08FB8133
:1015EC00BB890133BB81FB89002B97D100BF00BFA6
:1015FC001437BD465DF8047B704780B483B000AFF0
:10160C0078607B684FF6FF721A607B6800229A71D3
:10161C007B6800221A717B6800225A717B68012258
:10162C00DA7100BF0C37BD465DF8047B704780B49F
:10163C0083B000AF78600B467B807A887B689A61B8
:10164C0000BF0C37BD465DF8047B704780B483B097
:10165C0000AF78600B467B807A887B689A6200BF0B
:10166C000C37BD465DF8047B704780B485B000AF85
:10167C0078600B46FB701346BB700023FB600023A5
:10168C00BB60BA78FB7803F007039B0002FA03F304
:10169C00FB60FB78DB08DBB2002B15D07B685A6A49
:1016AC00FB7803F007039B000F2101FA03F3DB43E4
:1016BC001A407B685A627B685B6AFA681343BB60AA
:1016CC007B68BA685A6214E07B681A6AFB7803F08C
:1016DC0007039B000F2101FA03F3DB431A407B68DD
:1016EC001A627B681B6AFA681343BB607B68BA6832
:1016FC001A6200BF1437BD465DF8047B70470000CA
:10170C0080B582B000AF78607B68144A934208D1F0
:10171C0001211348FFF741FA00211148FFF73DFA68
:10172C0018E07B680F4A934208D101210E48FFF75D
:10173C0034FA00210C48FFF730FA0BE07B680B4AB7
:10174C00934207D101210A48FFF727FA00210848E4
:10175C00FFF723FA00BF0837BD4680BD0054004098
:10176C00150020000058004016002000005C0040CE
:10177C001700200080B485B000AFF8600B467A608B
:10178C00FB72FA6813686FF300031360FB687A68E6
:10179C001A61FB7A03F00F03D9B2FA68136861F38C
:1017AC000B23136000BF1437BD465DF8047B7047F4
:1017BC0080B483B000AF78600B46FB7013463B805F
:1017CC00FB7803F00103D9B27A68936861F38A233A
:1017DC0093603B88C3F3090399B27A68936861F309
:1017EC00090393607A68936843F40043936000BFE5
:1017FC000C37BD465DF8047B704780B483B000AFF6
:10180C0078600B46FB70FB7803F00103D9B27A6861
:10181C00136861F30003136000BF0C37BD465DF81D
:10182C00047B704780B487B000AFF8607B600B46D8
:10183C007B8113467B72FB685B687B617A690C4B1E
:10184C0013407B617A897B681A433B8C13437A691A
:10185C0013437B617B7A1B047A6913437B61FB68BE
:10186C007A695A6000BF1C37BD465DF8047B70472F
:10187C00009800FC80B483B000AF78600B46FB701E
:10188C00FA787B689A6200BF0C37BD465DF8047B22
:10189C00704780B483B000AF78607B685B6ADBB262
:1018AC0018460C37BD465DF8047B704780B483B096
:1018BC0000AF786039607B689A693B681340002BF5
:1018CC0001D0012300E0002318460C37BD465DF81B
:1018DC00047B704780B483B000AF786039607B685C
:1018EC003A68DA6100BF0C37BD465DF8047B70477F
:1018FC0080B485B000AF78607B6803F00703FB60B1
:10190C000C4BDB68BB60BA684FF6FF031340BB603F
:10191C00FB681A02BB68134343F0BF6343F4003304
:10192C00BB60044ABB68D36000BF1437BD465DF88A
:10193C00047B704700ED00E080B400AF044BDB6823
:10194C001B0A03F007031846BD465DF8047B70477D
:10195C0000ED00E080B483B000AF0346FB7197F953
:10196C000730002B0BDBFB7903F01F02074997F9BB
:10197C0007305B09012000FA02F241F8232000BF76
:10198C000C37BD465DF8047B704700BF00E100E0FA
:10199C0080B483B000AF03463960FB7197F9073010
:1019AC00002B0ADB3B68DAB20C4997F907301201BD
:1019BC00D2B20B4483F800230AE03B68DAB2084940
:1019CC00FB7903F00F03043B1201D2B20B441A76DD
:1019DC0000BF0C37BD465DF8047B704700E100E0AA
:1019EC0000ED00E080B489B000AFF860B9607A60B7
:1019FC00FB6803F00703FB61FB69C3F10703042BCE
:101A0C0028BF0423BB61FB690433062B02D9FB6995
:101A1C00033B00E000237B614FF0FF32BB6902FA0D
:101A2C0003F3DA43BB681A407B699A404FF0FF31ED
:101A3C007B6901FA03F3D9437B680B4013431846C7
:101A4C002437BD465DF8047B704780B586B000AF87
:101A5C000346B9607A60FB7300237B61FFF76CFF70
:101A6C0003467A68B9681846FFF7BCFF786197F9A6
:101A7C000F3079691846FFF78BFF97F90F3018462E
:101A8C00FFF768FF00BF1837BD4680BD80B582B038
:101A9C0000AF0346FB71FB791846FFF729FF00BF27
:101AAC000837BD4680BD000080B483B000AF03464C
:101ABC00FB71FB79042B06D1094B1B68084A43F0D8
:101ACC000403136005E0064B1B68054A23F004036E
:101ADC00136000BF0C37BD465DF8047B704700BF38
:101AEC0010E000E080B400AF204BD3F888301F4AE0
:101AFC0043F47003C2F888301D4A136843F00103A5
:101B0C00136000BF1A4B1B68C3F34003DBB2012BFD
:101B1C00F8D1174A93686FF30103936000BF144B1D
:101B2C009B68C3F38103DBB2002BF8D1104B1B680D
:101B3C000F4A23F0867323F4803313600C4B00227E
:101B4C009A600B4B0B4A5A60094B0022C3F8A02039
:101B5C00074B4FF41F02DA60044B4FF000629A609F
:101B6C0000BFBD465DF8047B704700BF00ED00E090
:101B7C0000380240023003002DE9B04F8AB000AFAC
:101B8C0000233B620023FB610023BB6100237B61CC
:101B9C0000237B6200233B610023FB60FFF760F9AD
:101BAC000346FB72FB7A022B22D0022B66DC002B45
:101BBC0002D0012B18D061E03E4BD3F8A030C3F318
:101BCC008033DBB2002B0BD03A4BD3F8A030C3F3ED
:101BDC000033DBB2002B03D0374B384A1A6051E08C
:101BEC00354B374A1A604DE0334B354A1A6049E0A1
:101BFC00304B5B68C3F38053DBB27B612D4B5B686E
:101C0C00C3F388139BB23B622A4B5B68C3F3030399
:101C1C00DBB2FB61274B5B68C3F30243DBB21A46B2
:101C2C00284B9B5CBB617B69002B02D1244B7B62F4
:101C3C0001E0234B7B627B6A00229A4693463B6A07
:101C4C0000229846914608FB0BF20AFB09F3134459
:101C5C00AAFB08452B441D46FB69BA6902FB03F33A
:101C6C0000223B607A60D7E9002320462946FEF724
:101C7C00E7FA02460B46104B1A6003E00E4B104A73
:101C8C001A6000BF0B4B9B68C3F30313DBB23B61C1
:101C9C000D4A3B6913441B78FB60074B1A68FB68C1
:101CAC0022FA03F3044A136000BF2837BD46BDE88F
:101CBC00B08F00BF0038024000000020006CDC0236
:101CCC0000127A002C2C0008342C000880B500AFD0
:101CDC000420FFF7E9FE094B1B68094AA2FB03230A
:101CEC009B0C084A1360074B1B684FF47A7202FB7B
:101CFC0003F3054A136000BF80BD00BF0000002045
:101D0C0083DE1B43249600202896002080B485B0E7
:101D1C0000AF0346FB800023FB6035E0FB88322BD1
:101D2C000AD91E4B1B681E4A322101FB03F3536078
:101D3C00FB88323BFB8008E0FB88184A1268184984
:101D4C0002FB03F34B600023FB80154B00229A60CF
:101D5C00134B1B68124A43F001031360104B1B68B2
:101D6C00FB60FB6803F00103002B04D0FB6803F459
:101D7C008033002BF2D00A4B1B68094A23F0010375
:101D8C001360074B00229A60FB88002BC6D100BF62
:101D9C0000BF1437BD465DF8047B704728960020C1
:101DAC0010E000E080B584B000AF0346FB80002358
:101DBC00FB810AE04FF4FA70FFF7A8FF4FF4FA70BA
:101DCC00FFF7A4FFFB890133FB81FA89FB889A4258
:101DDC00F0D300BF00BF1037BD4680BD80B582B0C8
:101DEC0000AF0346FB8000F035F8002200214E20A6
:101DFC00FFF72BFE0020FFF757F80020FFF796F8AF
:101E0C00FB8845F24062934203D10120FFF7A4F80E
:101E1C0002E00020FFF7A0F80020FFF771F8002384
:101E2C00002200210020FFF7EFF80020FFF7D6F882
:101E3C000020FFF7A7F80020FFF74CF801211F2026
:101E4C00FFF71CF90120FFF7B3F800BF0837BD46B8
:101E5C0080BD000080B582B000AF01214FF450105E
:101E6C00FEF75DFE01216048FEF759FE01215E4838
:101E7C00FEF755FE01215C48FEF751FE01215B483F
:101E8C00FEF74DFE01215A48FEF749FE0121594843
:101E9C00FEF745FE01215848FEF741FE0121564848
:101EAC00FEF73DFE01214FF44010FEF738FE0121F4
:101EBC004E48FEF734FE01214FF44010FEF72FFE82
:101ECC000D2206214D48FFF7D0FB0D2207214B4870
:101EDC00FFF7CBFB0D2208214848FFF7C6FB0D226C
:101EEC000B214748FFF7C1FB0D2203214548FFF7A3
:101EFC00BCFB0D2203214448FFF7B7FB0D22052143
:101F0C004248FFF7B2FB0D2206214048FFF7ADFB1C
:101F1C000D2206213E48FFF7A8FB0D220921384867
:101F2C00FFF7A3FB0D2204213948FFF79EFB022388
:101F3C00BB7100233B7101237B710123FB71402397
:101F4C003B603B4619462D48FFF7DDFA80233B608A
:101F5C003B4619462948FFF7D6FA4FF480733B608D
:101F6C003B4619462548FFF7CEFA4FF400633B6019
:101F7C003B4619462248FFF7C6FA08233B603B460E
:101F8C0019462048FFF7BFFA08233B603B46194629
:101F9C001D48FFF7B8FA20233B603B4619461B4807
:101FAC00FFF7B1FA40233B603B4619461748FFF751
:101FBC00AAFA40233B603B4619461548FFF7A3FAA3
:101FCC004FF400733B603B4619460D48FFF79BFAF4
:101FDC0010233B603B4619460D48FFF794FA00BFAF
:101FEC000837BD4680BD00BF02003000060030003F
:101FFC0001003000030030000400300000080240F3
:10200C000018024000040240000C02400010024084
:10201C000000024080B58AB000AFF860B96013468A
:10202C00FB8001212748FEF77AFD274B3B61FB68BB
:10203C007B61FB887B8300233B7600233B7701236A
:10204C007B770223BB770123FB77012387F82030B2
:10205C00022387F82130012387F82230032387F8E5
:10206C002330002387F82430002387F825301748C5
:10207C00FFF752F807F1100319461448FFF7D2F88E
:10208C000120FFF713FA69211148FFF727FABB6803
:10209C00002B08D00022B9680C48FFF794F90121F5
:1020AC000A48FFF7AEF9012210210848FFF755F94D
:1020BC00002200210E20FFF7C8FC00BF2837BD46C8
:1020CC0080BD00BF1500300028000550586002404C
:1020DC004C61024080B500AF01210448FFF728F99C
:1020EC000120FEF7CBFE00BF80BD00BF5860024050
:1020FC0080B500AF0020FEF7C1FE00BF054B1B688A
:10210C0003F00103002BF9D100210348FFF710F96C
:10211C0000BF80BD000005505860024080B400AF85
:10212C00054B1B780133DAB2034B1A7000BFBD4666
:10213C005DF8047B704700BF2C96002080B500AF83
:10214C001848FEF7BBFF0346002B02D01548FEF7DC
:10215C00CFFF1548FEF7B2FF0346002B02D0124802
:10216C00FEF7C6FF1148FEF7A9FF0346002B02D06D
:10217C000E48FEF7BDFF0E48FEF7A0FF0346002BEE
:10218C0002D00B48FEF7B4FF0A48FEF797FF034650
:10219C00002B04D00748FEF7ABFFFFF7BFFF00BFD3
:1021AC0080BD00BF04000080020000801000008091
:1021BC00080000800100008080B586B002AF0346A5
:1021CC000A46FB711346BB71FB793B73BB797B737E
:1021DC0007F10C02084B009302236021074800F022
:1021EC00C0FB0346002B01D0002300E0012318465E
:1021FC001037BD4680BD00BF40420F003096002016
:10220C0080B586B002AF03463960FB71FB793B7336
:10221C0007F10C0242F210730093012360210D4868
:10222C0000F09FFB0346002B01D000230EE042F28E
:10223C001073009301233A686021064800F015FCE6
:10224C000346002B01D0002300E001231846103771
:10225C00BD4680BD3096002080B582B000AF002313
:10226C00FB800023FB800FE0FB880B4A12F8132045
:10227C00FB8809495B000B445B7819461046FFF755
:10228C009BFFFB880133FB80FB880D2BECD900BF37
:10229C0000BF0837BD4680BD1C2F000880B584B038
:1022AC0000AF0346FB715E23FB734123BB735423C6
:1022BC007B73FB79042B2BD801A252F823F000BFBF
:1022CC00E12200081D230008F32200080123000866
:1022DC000F2300080021FF20FFF76EFF1021C720FD
:1022EC00FFF76AFF2BE06523FB734123BB734F237E
:1022FC007B730DE05223FB734123BB7366237B730B
:10230C0006E04223FB733F23BB7371237B7300BF37
:10231C000021FF20FFF750FF4021C720FFF74CFFA3
:10232C00FB7B1946CC20FFF747FFBB7B1946CD2022
:10233C00FFF742FF7B7B1946CE20FFF73DFF10379E
:10234C00BD4680BD80B584B000AF0346FB71FB7900
:10235C0002331B015BB243F008035BB2FB73002139
:10236C00FF20FFF729FF00217C20FFF725FF02212A
:10237C007D20FFF721FF03217C20FFF71DFFFB7B56
:10238C0019467D20FFF718FFFB7B19467D20FFF7D0
:10239C0013FF00BF1037BD4680BD80B582B000AFC3
:1023AC000346FB710021FF20FFF706FF00217C2074
:1023BC00FFF702FF04217D20FFF7FEFE09217C20A0
:1023CC00FFF7FAFEFB791B01DBB219467D20FFF704
:1023DC00F3FE00217D20FFF7EFFE00BF0837BD465E
:1023EC0080BD000080B584B000AF0346FB71202394
:1023FC00FB732023BB73FB79042B21D801A252F869
:10240C0023F000BF252400082F2400084D240008C9
:10241C0039240008432400081823FB733423BB73AE
:10242C000EE01C23FB732A23BB7309E02423FB73EC
:10243C001623BB7304E02823FB730C23BB7300BF70
:10244C000021FF20FFF7B8FE00217C20FFF7B4FE2F
:10245C0004217D20FFF7B0FE07217C20FFF7ACFEA6
:10246C0020217D20FFF7A8FEFB7B19467D20FFF77E
:10247C00A3FEBB7B19467D20FFF79EFE06217D2027
:10248C00FFF79AFE00BF1037BD4680BD80B584B003
:10249C0000AF03460A46FB801346BB80FB8803F063
:1024AC0003039BB2002B01D001233EE0BB8803F059
:1024BC0003039BB2002B01D0022336E0FB889B0860
:1024CC00FB81BB889B08BB810021FF20FFF774FEBA
:1024DC000421E020FFF770FEFB89DBB219465A207D
:1024EC00FFF76AFEBB89DBB219465B20FFF764FE7F
:1024FC00FB891B0A9BB2DBB203F00303FB72BB89A3
:10250C009B099BB25BB203F004035AB297F90B30F0
:10251C0013435BB2FB72FB7A19465C20FFF74CFE4F
:10252C000021E020FFF748FE002318461037BD4677
:10253C0080BD000080B584B000AF786039600121A7
:10254C001B48FEF7ECFA01211A48FEF7E8FA0121C4
:10255C001848FEF7E4FA042202211748FFF785F821
:10256C00042203211448FFF780F80123FB73022394
:10257C00BB7301233B7301237B730423BB6007F103
:10258C00080319460C48FEF7BEFF0823BB6007F191
:10259C00080319460848FEF7B6FF7B681B683A68C3
:1025AC000F211846FFF7E6F800BF1037BD4680BD77
:1025BC001600400007003000001C024080B500AF40
:1025CC00094B0A4A1A60084B1B681846FFF798F823
:1025DC0007490548FFF7AEFF034B1B68012118465E
:1025EC00FFF70BF900BF80BD30960020005800406B
:1025FC006B3CF07080B582B000AF0023FB804021B3
:10260C003548FFF723F80A20FFF780FB0A20FFF775
:10261C007DFB40213048FFF70AF80A20FFF776FBD4
:10262C00FFF7CCFF0121FF20FFF7C6FD8021122010
:10263C00FFF7C2FD3220FFF769FBFB1C19461C207B
:10264C00FFF7DEFDFB789BB21B02BB80FB1C19461F
:10265C001D20FFF7D5FDFB789AB2BB881343BB80D6
:10266C00BB8847F6A272934201D0002330E0FB1CDA
:10267C0019460A20FFF7C4FDFB789BB21B02BB80F6
:10268C00FB1C19460B20FFF7BBFDFB789AB2BB88ED
:10269C001343BB80BB8842F24262934201D00023B9
:1026AC0016E00023FB800FE0FB880C4A12F8132085
:1026BC00FB880A495B000B445B7819461046FFF710
:1026CC007BFDFB880133FB80FB88B02BECD901230D
:1026DC0018460837BD4680BD000C0240A82D0008E6
:1026EC0080B586B002AF03463960FB80FB881B0ABD
:1026FC009BB2DBB23B73FB88DBB27B7307F10C0242
:10270C001F4B0093022378211E4800F02AF9034640
:10271C00002B12D01A4B012220211A4800F080F80D
:10272C000346002B01D0002326E0164B1B6820210A
:10273C001846FFF7CFF800231EE0114B009301233E
:10274C003A6878210F4800F090F90346002B12D01C
:10275C000B4B012220210B4800F062F80346002BA2
:10276C0001D0002308E0074B1B6820211846FFF717
:10277C00B1F8002300E0012318461037BD4680BD98
:10278C0040420F006496002080B500AF034B044A12
:10279C001A60024800F006F800BF80BD6496002065
:1027AC000058004080B582B000AF78607B681B6831
:1027BC001846FEF7A5FF7868FEF79EF87B681B6845
:1027CC0001211846FFF719F800BF0837BD4680BD38
:1027DC0080B483B000AF78607B681A6853686FF37D
:1027EC00090353607B681A6853686FF30C335360AA
:1027FC007B681A6853686FF3174353607B681A68D9
:10280C0053686FF3186353607B681A6853686FF3EF
:10281C008A23536000BF0C37BD465DF8047B7047BC
:10282C0080B584B000AFF860B9607A603B60BB687B
:10283C00B3F5004F53D109E03B685A1E3A60002BA8
:10284C0004D1FB6812221A75122352E0FB681B6834
:10285C00B9681846FFF72AF80346002BECD147E07D
:10286C007B6803F00103002B13D0FB681B6810215D
:10287C001846FFF71BF80346002B0AD0FB681B68B1
:10288C0010211846FFF726F8FB6811221A75112340
:10289C002FE07B6803F00203002B16D0FB681B684B
:1028AC0020211846FFF702F80346002B0DD0FB68D9
:1028BC001B6820211846FFF70DF8F868FFF788FF12
:1028CC00FB6810221A75102313E03B685A1E3A60FD
:1028DC00002B04D1FB6812221A75122309E0FB6845
:1028EC001B68B9681846FEF7E1FF0346002BB7D00A
:1028FC00002318461037BD4680BD80B584B002AFAA
:10290C0078600B467B8013463B807B685B899BB26F
:10291C00FF2B10D97B68FF221A817B6818687B68B3
:10292C001B899BB2DAB279883B8800934FF0807395
:10293C00FEF778FF11E07B685B899AB27B681A819D
:10294C007B6818687B681B899BB2DAB279883B88F4
:10295C0000934FF00073FEF765FF00BF0837BD46CC
:10296C0080BD80B584B000AFF8607A601A460B4623
:10297C007B8113463B81FB687A685A60FB683A8915
:10298C005A81FB6800221A75BB6900224FF4004182
:10299C00F868FFF745FF0346002B01D0012360E0E8
:1029AC007B894FF400521946F868FFF7A6FF3EE00A
:1029BC00BB6901220221F868FFF732FF0346002BA6
:1029CC0001D002234DE0FB681868FB685B68591C5A
:1029DC00FA6851601B781946FEF74CFFFB681B899F
:1029EC009BB2013B9AB2FB681A81FB685B899BB274
:1029FC00013B9AB2FB685A81FB681B899BB2002B86
:102A0C0015D1FB685B899BB2002B10D0BB690122EE
:102A1C008021F868FFF704FF0346002B01D0032345
:102A2C001FE07B8900221946F868FFF766FFFB68F8
:102A3C005B899BB2002BBBD1BB6901222021F868BA
:102A4C00FFF7EEFE0346002B01D0042309E0FB68E0
:102A5C001B6820211846FEF73DFFF868FFF7B8FE0B
:102A6C00002318461037BD4680BD90B585B000AF29
:102A7C00F8607A601A460B467B8113463B81FB68F3
:102A8C007A685A60FB683A895A81FB6800221A7589
:102A9C003B6A00224FF40041F868FFF7C1FE034681
:102AAC00002B01D0012361E07B894FF410521946B1
:102ABC00F868FFF722FF3FE03B6A01220421F86827
:102ACC00FFF7AEFE0346002B01D002234EE0FB685D
:102ADC001968FB685C68621CFB685A600846FEF764
:102AEC00D8FE03462370FB685B899BB2013B9AB20C
:102AFC00FB685A81FB681B899BB2013B9AB2FB684D
:102B0C001A81FB681B899BB2002B15D1FB685B8972
:102B1C009BB2002B10D03B6A00228021F868FFF793
:102B2C007FFE0346002B01D003231FE07B8900228C
:102B3C001946F868FFF7E1FEFB685B899BB2002B36
:102B4C00BAD13B6A01222021F868FFF769FE0346DF
:102B5C00002B01D0042309E0FB681B6820211846D8
:102B6C00FEF7B8FEF868FFF733FE0023184614375B
:102B7C00BD4690BD002103E00B4B5B584350043124
:102B8C000A480B4B42189A42F6D30A4A02E0002339
:102B9C0042F8043B084B9A42F9D3FEF7A3FF00F02E
:102BAC000FF8FDF711FE7047802F00080000002081
:102BBC000400002004000020D0960020FEE7000056
:102BCC0070B50D4D0D4C641BA4100026A64209D106
:102BDC000B4D0C4C00F018F8641BA4100026A642F8
:102BEC0005D170BD55F8043B98470136EEE755F812
:102BFC00043B98470136F2E7782F0008782F00083D
:102C0C00782F00087C2F0008F8B500BFF8BC08BC72
:102C1C009E467047F8B500BFF8BC08BC9E4670478E
:102C2C000102040810200000000000000000000059
:102C3C000102030406070809FF002CFF2EDFFF0129
:102C4C003C3211000902042013E514482C0C337893
:102C5C003A333BFB3E0043111610399235DA221AF7
:102C6C0037C3230034C0361A068807C00D870E41BF
:102C7C004C0048005B0042034A81219924402538CE
:102C8C0026825C00630046000C3C617062807C050F
:102C9C00208028306C006D806E007002719473C1BE
:102CAC003D345A5712001711187519011A973236FC
:102CBC00030F37404FCA50A85A236D006D38FF00E0
:102CCC00E57FF9C04124E01476FF33A0422043187D
:102CDC004C0087D5883FD703D910D382C808C98048
:102CEC007C007D007C037D487D487C087D207D1028
:102CFC007D0E9000910E911A9131915A91699175B6
:102D0C00917E9188918F919691A391AF91C491D717
:102D1C0091E891209200930693E393059305930019
:102D2C0093049300930093009300930093009300FB
:102D3C009600970897199702970C97249730972825
:102D4C00972697029798978097009700C3EFA40057
:102D5C00A800C511C651BF80C710B666B8A5B76428
:102D6C00B97CB3AFB497B5FFB0C5B194B20FC45C26
:102D7C00C0C8C1968C00863D50005190522C530017
:102D8C00540055885A905B2C5C05D302C3ED7F0030
:102D9C00DA09E51FE167E000DD7F0500FF002CFF8D
:102DAC002EDFFF013C3211000902042013E5144808
:102DBC002C0C33783A333BFB3E00431116103992FE
:102DCC0035DA221A37C3230034C0361A068807C0F6
:102DDC000D870E414C0048005B0042034A8121994B
:102DEC002440253826825C00630046220C3C61702E
:102DFC0062807C05208028306C006D806E00700233
:102E0C00719473C13D345A5712401711184319006D
:102E1C001A4B320937C04FCA50A85A236D003D389F
:102E2C00FF00E57FF9C04124E01476FF33A0422077
:102E3C0043184C0087D5883FD703D910D382C808D4
:102E4C00C9807C007D007C037D487D487C087D200A
:102E5C007D107D0E9000910E911A9131915A9169CD
:102E6C009175917E9188918F919691A391AF91C418
:102E7C0091D791E891209200930693E393059305E3
:102E8C00930093049300930093009300930093009A
:102E9C0093009600970897199702970C97249730F0
:102EAC009728972697029798978097009700C3EDDD
:102EBC00A400A800C511C651BF80C710B666B8A53E
:102ECC00B764B97CB3AFB497B5FFB0C5B194B20FCA
:102EDC00C45CC064C14B8C00863D500051C85296F6
:102EEC005300540055005AC85B965C00D302C3EDE6
:102EFC007F00DA09E51FE167E000DD7F05000000D7
:102F0C00FF01E014E177E51FD703DA10E0000000C1
:102F1C00FF00DA09D703DF0233A03C00E167FF01B1
:102F2C00E000E100E500D700DA00E000FF00DA1075
:102F3C00D703DF0033803C40E1770000FF01242001
:102F4C0025182660FF012434251C2600FF01243E91
:102F5C0025382681FF01244825402681FF0124586D
:042F6C002550269234
:082F70000CD3FF7F01000000FB
:042F7800310200081A
:042F7C000D0200083A
:042F800000127A00C1
:0400000508002B8143
:00000001FF
